:100000000C9446000C9465000C9465000C946500FB
:100010000C9465000C9465000C9465000C946500CC
:100020000C9465000C9465000C9465000C946500BC
:100030000C9465000C94DE000C9465000C94650033
:100040000C9465000C9465000C9465000C9465009C
:100050000C9465000C9465000C9465000C9465008C
:100060000C9465000C9465000C9465000C9465007C
:100070000C9465000C9465000C9465000C9465006C
:100080000C9465000C9465000C94650011241FBE4F
:10009000CFEFD0E4DEBFCDBF11E0A0E0B1E0E2E8F9
:1000A000F4E000E00BBF02C007900D92A631B1074B
:1000B000D9F721E0A6E1B1E001C01D92A132B2075B
:1000C000E1F70E94F0010C943F020C940000CF93E2
:1000D000DF9300D01F92CDB7DEB789837B836A831D
:1000E00089818A3031F48A819B81BC018DE00E9434
:1000F000670080EC90E0FC018081882F90E08072A6
:100100009927892BB1F386EC90E02981FC012083AB
:1001100080E090E00F900F900F90DF91CF910895C5
:10012000CF93DF93CDB7DEB781E890E02BE0FC0101
:10013000208388E890E02DE730E0FC0131832083C4
:100140008FE690E022E0FC01208384E890E0FC014F
:100150001182108280910E0190910F01A0911001E7
:10016000B09111018093170190931801A093190188
:10017000B0931A018FE590E02FE530E0F90120817E
:100180002068FC0120830000DF91CF910895CF9378
:10019000DF93CDB7DEB781E890E0FC01108200006C
:1001A000DF91CF910895CF93DF93CDB7DEB781E094
:1001B000809316010000DF91CF9108951F920F9256
:1001C00000905F000F92112400905B000F922F931C
:1001D0003F934F935F936F937F938F939F93AF93CF
:1001E000BF93EF93FF93CF93DF93CDB7DEB78091AB
:1001F000170190911801A0911901B0911A0101976E
:10020000A109B1098093170190931801A0931901D6
:10021000B0931A018091170190911801A0911901D2
:10022000B0911A01892B8A2B8B2B91F40E94D30059
:1002300080910E0190910F01A0911001B0911101D8
:100240008093170190931801A0931901B0931A019C
:100250000000DF91CF91FF91EF91BF91AF919F91FE
:100260008F917F916F915F914F913F912F910F905F
:1002700000925B000F9000925F000F901F90189506
:10028000CF93DF9300D000D0CDB7DEB769837A83F8
:100290008B839C8389819A81AB81BC8180930E0181
:1002A00090930F01A0931001B093110180910E0162
:1002B00090910F01A0911001B0911101809317014D
:1002C00090931801A0931901B0931A0100000F90A8
:1002D0000F900F900F90DF91CF910895CF93DF9300
:1002E000CDB7DEB780911F0190912001009719F0E2
:1002F000019759F01EC081E080931B0181E090E0DE
:100300009093200180931F0114C080911B018430C1
:1003100021F481E080931B0105C080911B01880FAF
:1003200080931B0181E090E09093200180931F0156
:10033000000080911F0190912001029708F40000B5
:100340000000DF91CF910895CF93DF93CDB7DEB753
:1003500080911D0190911E01009719F0019759F0AD
:100360001BC088E080931C0181E090E090931E0107
:1003700080931D0111C080911C01883019F41092E6
:100380001C0103C088E080931C0181E090E0909301
:100390001E0180931D01000080911D0190911E019E
:1003A000029708F400000000DF91CF910895CF93E9
:1003B000DF931F92CDB7DEB70E946E010E94A401A9
:1003C00090911C0180911B01892B898385E290E02B
:1003D0002981FC01208300000F90DF91CF910895C7
:1003E000CF93DF93CDB7DEB784E290E02FEFFC012F
:1003F000208385E290E0FC0110821092200110928F
:100400001F0110921E0110921D0161E070E080E05A
:1004100090E00E9440010E94900080911201909112
:100420001301A0911401B0911501883E9340A105DC
:10043000B10550F00E94D7011092120110921301E1
:10044000109214011092150100008091160188236A
:10045000E1F3109216018091120190911301A09185
:100460001401B09115010196A11DB11D80931201D7
:1004700090931301A0931401B0931501CECFF8947B
:02048000FFCFAC
:100482000000000200000000670000000000010000
:060492000000E803000079
:00000001FF
