:100000000C9446000C9465000C9465000C946500FB
:100010000C9465000C9465000C9465000C946500CC
:100020000C9465000C9465000C9465000C946500BC
:100030000C9465000C94DE000C9465000C94650033
:100040000C9465000C9465000C9465000C9465009C
:100050000C9465000C9465000C9465000C9465008C
:100060000C9465000C9465000C9465000C9465007C
:100070000C9465000C9465000C9465000C9465006C
:100080000C9465000C9465000C94650011241FBE4F
:10009000CFEFD0E4DEBFCDBF11E0A0E0B1E0ECE1F6
:1000A000F8E000E00BBF02C007900D92A432B10748
:1000B000D9F721E0A4E2B1E001C01D92A533B20757
:1000C000E1F70E9430030C940C040C940000CF93D1
:1000D000DF9300D01F92CDB7DEB789837B836A831D
:1000E00089818A3031F48A819B81BC018DE00E9434
:1000F000670080EC90E0FC018081882F90E08072A6
:100100009927892BB1F386EC90E02981FC012083AB
:1001100080E090E00F900F900F90DF91CF910895C5
:10012000CF93DF93CDB7DEB781E890E02BE0FC0101
:10013000208388E890E02DE730E0FC0131832083C4
:100140008FE690E022E0FC01208384E890E0FC014F
:100150001182108280910E0190910F01A0911001E7
:10016000B09111018093250190932601A09327015E
:10017000B09328018FE590E02FE530E0F901208170
:100180002068FC0120830000DF91CF910895CF9378
:10019000DF93CDB7DEB781E890E0FC01108200006C
:1001A000DF91CF910895CF93DF93CDB7DEB781E094
:1001B000809324010000DF91CF9108951F920F9248
:1001C00000905F000F92112400905B000F922F931C
:1001D0003F934F935F936F937F938F939F93AF93CF
:1001E000BF93EF93FF93CF93DF93CDB7DEB78091AB
:1001F000250190912601A0912701B0912801019736
:10020000A109B1098093250190932601A0932701AC
:10021000B09328018091250190912601A09127019A
:10022000B0912801892B8A2B8B2B91F40E94D3004B
:1002300080910E0190910F01A0911001B0911101D8
:100240008093250190932601A0932701B093280164
:100250000000DF91CF91FF91EF91BF91AF919F91FE
:100260008F917F916F915F914F913F912F910F905F
:1002700000925B000F9000925F000F901F90189506
:10028000CF93DF9300D000D0CDB7DEB769837A83F8
:100290008B839C8389819A81AB81BC8180930E0181
:1002A00090930F01A0931001B093110180910E0162
:1002B00090910F01A0911001B0911101809325013F
:1002C00090932601A0932701B093280100000F907E
:1002D0000F900F900F90DF91CF910895CF93DF9300
:1002E000CDB7DEB78091330190913401009719F0BA
:1002F000019759F01EC081E080932A0181E090E0CF
:10030000909334018093330114C080912A0184308A
:1003100021F481E080932A0105C080912A01880F91
:1003200080932A0181E090E090933401809333011F
:1003300000008091330190913401029708F400008D
:100340000000DF91CF910895CF93DF93CDB7DEB753
:100350008091310190913201009719F0019759F085
:100360001BC088E080932B0181E090E090933201E4
:100370008093310111C080912B01883019F41092C3
:100380002B0103C088E080932B0181E090E09093E3
:10039000320180933101000080913101909132014E
:1003A000029708F400000000DF91CF910895CF93E9
:1003B000DF931F92CDB7DEB780E290E0FC01808131
:1003C00080958470898380912F01909130018130D4
:1003D0009105A9F08130910538F08230910511F135
:1003E000039709F447C06EC081E090E0909330011C
:1003F00080932F011092290110922C0163C08981F2
:10040000882339F481E090E09093300180932F01AC
:1004100059C082E090E09093300180932F011092B8
:100420002C0150C08981882339F481E090E09093B9
:10043000300180932F0146C08981843091F49091DE
:100440002C0180911201981760F482E090E0909363
:10045000300180932F0180912C018F5F80932C01BC
:1004600031C083E090E09093300180932F0110928F
:100470002C0128C08981882339F481E090E0909391
:10048000300180932F011DC08981843091F49091B7
:100490002C0180911201981760F483E090E0909312
:1004A000300180932F0180912C018F5F80932C016C
:1004B00008C082E090E09093300180932F01109269
:1004C0002C01000080912F01909130018130910525
:1004D00049F08130910568F08230910531F0039741
:1004E00009F008C01092290105C080E1809329011C
:1004F00001C0000000000F90DF91CF910895CF93CD
:10050000DF931F92CDB7DEB780E290E0FC018081DF
:1005100080958370898380912D0190912E01823086
:100520009105B9F18330910528F4009769F001979E
:10053000A9F05FC08430910599F184309105B8F13C
:10054000059709F445C055C081E090E090932E01D5
:1005500080932D0182E0809312014BC0898181300C
:1005600039F482E090E090932E0180932D0141C0F8
:100570008981823039F484E090E090932E01809359
:100580002D0137C081E090E090932E0180932D01E2
:1005900030C083E090E090932E0180932D0129C01C
:1005A00085E090E090932E0180932D0122C08981F7
:1005B000813039F483E090E090932E0180932D01F7
:1005C00018C081E090E090932E0180932D0111C01E
:1005D0008981823039F485E090E090932E018093F8
:1005E0002D0106C081E090E090932E0180932D01B3
:1005F000000080912D0190912E018230910531F003
:100600008230910578F0049739F00CC08091120186
:100610008F5F8093120107C08091120181508093F7
:10062000120101C0000000000F90DF91CF910895EA
:10063000CF93DF931F92CDB7DEB7909129018091C0
:100640002B01982B80912A01892B898385E290E0E8
:100650002981FC01208300000F90DF91CF91089544
:10066000CF93DF93CDB7DEB781E290E0FC0110823B
:1006700082E290E02FEFFC01208384E290E02FEFF4
:10068000FC01208385E290E0FC011082109234018D
:100690001092330110923201109231011092300108
:1006A00010922F011092290161E070E080E090E04B
:1006B0000E9440010E9490008091130190911401CA
:1006C000A0911501B09116018C329140A105B105A0
:1006D00050F00E946E0110921301109214011092BA
:1006E0001501109216018091170190911801A091A7
:1006F0001901B0911A01883E9340A105B10550F04F
:100700000E94A40110921701109218011092190171
:1007100010921A0180911B0190911C01A0911D0162
:10072000B0911E010297A105B10550F00E94D701BA
:1007300010921B0110921C0110921D0110921E01BB
:1007400080911F0190912001A0912101B09122017F
:100750000297A105B10550F00E947F0210921F017F
:100760001092200110922101109222010E94180380
:100770000000809124018823E1F3109224018091EC
:10078000130190911401A0911501B09116010196E9
:10079000A11DB11D8093130190931401A093150125
:1007A000B09316018091170190911801A091190141
:1007B000B0911A010196A11DB11D8093170190936C
:1007C0001801A0931901B0931A0180911B01909117
:1007D0001C01A0911D01B0911E010196A11DB11D2A
:1007E00080931B0190931C01A0931D01B0931E01E7
:1007F00080911F0190912001A0912101B0912201CF
:100800000196A11DB11D80931F0190932001A0931B
:0C0810002101B093220150CFF894FFCFDB
:10081C000000000200000000670000000000010062
:10082C000000022C010000E803000002000000029E
:04083C0000000000B8
:00000001FF
