:100000000C9446000C9465000C9465000C946500FB
:100010000C9465000C9465000C9465000C946500CC
:100020000C9465000C9465000C9465000C946500BC
:100030000C9465000C94DE000C9465000C94650033
:100040000C9465000C9465000C9465000C9465009C
:100050000C9465000C9465000C9465000C9465008C
:100060000C9465000C9465000C9465000C9465007C
:100070000C9465000C9465000C9465000C9465006C
:100080000C9465000C9465000C94650011241FBE4F
:10009000CFEFD0E4DEBFCDBF11E0A0E0B1E0E2E2FF
:1000A000F5E000E00BBF02C007900D92AE31B10742
:1000B000D9F721E0AEE1B1E001C01D92A932B2074B
:1000C000E1F70E94EC010C948F020C940000CF9396
:1000D000DF9300D01F92CDB7DEB789837B836A831D
:1000E00089818A3031F48A819B81BC018DE00E9434
:1000F000670080EC90E0FC018081882F90E08072A6
:100100009927892BB1F386EC90E02981FC012083AB
:1001100080E090E00F900F900F90DF91CF910895C5
:10012000CF93DF93CDB7DEB781E890E02BE0FC0101
:10013000208388E890E02DE730E0FC0131832083C4
:100140008FE690E022E0FC01208384E890E0FC014F
:100150001182108280910E0190910F01A0911001E7
:10016000B091110180931F0190932001A093210170
:10017000B09322018FE590E02FE530E0F901208176
:100180002068FC0120830000DF91CF910895CF9378
:10019000DF93CDB7DEB781E890E0FC01108200006C
:1001A000DF91CF910895CF93DF93CDB7DEB781E094
:1001B00080931E010000DF91CF9108951F920F924E
:1001C00000905F000F92112400905B000F922F931C
:1001D0003F934F935F936F937F938F939F93AF93CF
:1001E000BF93EF93FF93CF93DF93CDB7DEB78091AB
:1001F0001F0190912001A0912101B091220101974E
:10020000A109B10980931F0190932001A0932101BE
:10021000B093220180911F0190912001A0912101B2
:10022000B0912201892B8A2B8B2B91F40E94D30051
:1002300080910E0190910F01A0911001B0911101D8
:1002400080931F0190932001A0932101B09322017C
:100250000000DF91CF91FF91EF91BF91AF919F91FE
:100260008F917F916F915F914F913F912F910F905F
:1002700000925B000F9000925F000F901F90189506
:10028000CF93DF9300D000D0CDB7DEB769837A83F8
:100290008B839C8389819A81AB81BC8180930E0181
:1002A00090930F01A0931001B093110180910E0162
:1002B00090910F01A0911001B091110180931F0145
:1002C00090932001A0932101B093220100000F9090
:1002D0000F900F900F90DF91CF910895CF93DF9300
:1002E000CDB7DEB78091270190912801009719F0D2
:1002F000019759F01EC081E08093230181E090E0D6
:10030000909328018093270114C0809123018430A9
:1003100021F481E08093230105C080912301880F9F
:100320008093230181E090E090932801809327013E
:1003300000008091270190912801029708F40000A5
:100340000000DF91CF910895CF93DF93CDB7DEB753
:100350008091250190912601009719F0019759F09D
:100360001BC088E08093240181E090E090932601F7
:100370008093250111C080912401883019F41092D6
:10038000240103C088E08093240181E090E09093F1
:10039000260180932501000080912501909126017E
:1003A000029708F400000000DF91CF910895CF93E9
:1003B000DF931F92CDB7DEB7909124018091230186
:1003C000892B898385E290E02981FC01208300004C
:1003D0000F90DF91CF910895CF93DF93CDB7DEB724
:1003E00084E290E02FEFFC01208385E290E0FC01A5
:1003F000108210922801109227011092260110926B
:10040000250161E070E080E090E00E9440010E94E0
:1004100090008091120190911301A0911401B0916C
:1004200015018C329140A105B10550F00E946E017A
:1004300010921201109213011092140110921501E2
:100440008091160190911701A0911801B0911901A6
:10045000883E9340A105B10550F00E94A40110927E
:100460001601109217011092180110921901809133
:100470001A0190911B01A0911C01B0911D018436BD
:100480009105A105B10550F00E94D70110921A0103
:1004900010921B0110921C0110921D01000080910E
:1004A0001E018823E1F310921E01809112019091A8
:1004B0001301A0911401B09115010196A11DB11D68
:1004C0008093120190931301A0931401B09315012E
:1004D0008091160190911701A0911801B091190116
:1004E0000196A11DB11D8093160190931701A09351
:1004F0001801B093190180911A0190911B01A091EC
:100500001C01B0911D010196A11DB11D80931A011E
:1005100090931B01A0931C01B0931D017ACFF89416
:02052000FFCF0B
:10052200000000020000000067000000000001005F
:0E05320000002C010000E8030000640000003F
:00000001FF
